:020000040800F2
:1000000030BC0020CDDF0108491F0108CF60000887
:100010004B1F01084F1F0108531F0108000000007B
:10002000000000000000000000000000DFDF010809
:10003000571F01080000000057600008C91D010893
:10004000E7DF0108E7DF0108E7DF010869F00008E2
:10005000E7DF0108E7DF01083F2401085124010818
:10006000632401087524010887240108E7DF0108DB
:10007000E7DF0108E7DF0108E7DF0108E7DF010844
:10008000E7DF0108E7DF0108E7DF0108E7DF010834
:10009000E7DF0108E7DF0108E7DF0108AD890008B5
:1000A000E7DF0108E7DF0108E7DF0108E7DF010814
:1000B000E7DF0108E7DF0108D3E80008E7DF010810
:1000C000E7DF0108E7DF0108E7DF0108E7DF0108F4
:1000D000E7DF0108FF260108D71B0108E7DF010859
:1000E00099240108E7DF0108E7DF0108E7DF0108DD
:1000F000E7DF0108E7DF0108E7DF0108E7DF0108C4
:10010000E7DF0108E7DF0108E97E0008E7DF010813
:10011000E7DF0108E7DF0108E7DF0108E7DF0108A3
:10012000E7DF0108E7DF0108E7DF0108E7DF010893
:10013000DFF80CD037F0B4F800480047550200084B
:1001400030BC0020704719480068704770B50446FD
:1001500005F06AFF054615480460284605F068FF6B
:1001600070BD10B511480068401C1049086004F0CB
:10017000C5FD0446E06E401EE066E06E18B9A06E54
:10018000E06604F0D0FE05F04DFB10BD01460029ED
:1001900002DA4FF0FF3008E04FF47A724A4302F27D
:1001A000E7324FF47A7392FBF3F0704700000020BF
:1001B00000207047002070470020704700207047E3
:1001C00010B5284C02E020688047241D2648844250
:1001D000F9D310BD10B5244C02E020688047241DDF
:1001E00022488442F9D310BD10B50446FFF7F2FF50
:1001F0000DF09FFE10BD1CB514200A214FF40063C2
:100200000022CDE90010AFF21F0119A004F02AFE70
:10021000044624B9C622184918A002F0E8FE204678
:1002200004F0ABFD1CBD10B505F0FEFE11F0D6FDCF
:1002300002F00AFE05F0C1FB04F03EF804F00CFCED
:10024000FFF7D9FF05F0C5FB00F06BFB04F050F899
:10025000002010BD10B505F0E7FEFFF7E4FF002019
:1002600010BD0000181505082415050830150508EF
:100270006D61696E00000000607D03087469642090
:10028000213D2052545F4E554C4C00002DE9F04169
:10029000064604F033FD08B104F0E8F8082003F046
:1002A00041FE044624B97C22FC49FDA002F09FFED9
:1002B000656810E0A5F11C0719223146384602F0A6
:1002C000DEFA38B904F01AFD08B104F0DDF838465A
:1002D000BDE8F0812D68201D8542EBD104F00EFDB4
:1002E00008B104F0D1F80020F2E770B504460D46DD
:1002F000164614B94FF0FF3070BD2846FFF7C6FF11
:1003000010B14FF0FF30F7E72A460821204603F0EE
:100310001BFEE684002084F82A00208500BFEBE75E
:1003200010B5044624B95222E349E4A002F05FFE6E
:10033000204603F0E1FE082804D05322DE49E3A062
:1003400002F055FE204603F0C6FE20B95422DA49D9
:10035000EDA002F04CFE204603F023FE002010BD6D
:10036000002070472DE9F04106460C465027E01C5E
:1003700020F003042744384602F07EFF054635B1DD
:1003800050220021284602F08CF985F82460284686
:10039000BDE8F08110B5044624B9BA22E449C7A0EB
:1003A00002F025FE204603F0A7FE082804D0BB2259
:1003B000DF49C6A002F01BFE204603F08CFE20B1F0
:1003C000BC22DB49DBA002F012FE204603F0E9FD6F
:1003D000204603F056F810BD70B50446002524B938
:1003E000D122E149B5A002F002FE606B98B194F809
:1003F000260000F0100070B92046616B8847054662
:100400002DB12A462146D9A002F0EEFC03E0E08C93
:1004100040F01000E084284670BD70B504460E46DA
:10042000002524B9F422DF49A4A002F0E0FD204613
:1004300003F062FE082804D0F522DA49A3A002F0F6
:10044000D6FD94F8260000F0100088B9606B58B112
:100450002046616B8847054635B12A462146C3A030
:1004600002F0C2FC284670BDE08C40F01000E08431
:1004700094F8260000F0080038B194F8280000F045
:10048000080010B16FF00600EDE7A06B28B131460F
:100490002046A26B9047054603E040F60F703040BF
:1004A00020850DB1A81D80B934F8280F40F0080050
:1004B0002080A078401CA070A078283C28B940F289
:1004C0002312B849B8A002F092FD2846CBE770B5D8
:1004D000044600252CB940F23512B84977A002F045
:1004E00086FD204603F008FE082805D04FF49B72D5
:1004F000B24976A002F07BFD94F82A0010B94FF0C3
:10050000FF3070BD14F82A0F401E207014F82A091D
:1005100008B10020F5E7E06B18B12046E16B884791
:1005200005460DB1A81D08B9002020852846E8E73A
:100530002DE9F04104460D4616461F462CB940F2FF
:100540005F129F495DA002F052FD204603F0D4FDEA
:10055000082805D04FF4B07299495CA002F047FD1D
:1005600094F82A0030B94FF0FF3002F079F80020FB
:10057000BDE8F081206C38B13B4632462946204622
:10058000D4F840C0E047F3E76FF0050002F068F8E8
:100590000020EDE72DE9F04104460D4616461F46C2
:1005A0002CB94FF4C372874944A002F020FD2046C5
:1005B00003F0A2FD082805D040F28712814943A02C
:1005C00002F015FD94F82A0030B94FF0FF3002F028
:1005D00047F80020BDE8F081606C38B13B463246F8
:1005E00029462046D4F844C0E047F3E76FF0050001
:1005F00002F036F80020EDE770B504460D461646C9
:100600002CB940F2A71270492CA002F0F0FC204651
:1006100003F072FD082805D04FF4D4726A492BA06C
:1006200002F0E5FCA06C28B1324629462046A36CB6
:10063000984770BD6FF00500FBE770B504460D46A6
:100640002CB940F2C11261491CA002F0D0FC204636
:1006500003F052FD082805D04FF4E1725B491BA05E
:1006600002F0C5FCE562002070BD70B504460D4681
:100670002CB940F2D712564910A002F0B8FC20461F
:1006800003F03AFD082805D04FF4EC7250490FA052
:1006900002F0ADFC2563002070BD0000897D0308D9
:1006A000696E666F726D6174696F6E20213D2052B4
:1006B000545F4E554C4C0000747D030864657620F1
:1006C000213D2052545F4E554C4C000072745F6FB8
:1006D000626A6563745F6765745F74797065282604
:1006E0006465762D3E706172656E7429203D3D20F3
:1006F00052545F4F626A6563745F436C6173735FEA
:10070000446576696365000072745F6F626A656351
:10071000745F69735F73797374656D6F626A656323
:100720007428266465762D3E706172656E742900AA
:10073000987D030872745F6F626A6563745F6973A2
:100740005F73797374656D6F626A6563742826647C
:1007500065762D3E706172656E7429203D3D205294
:10076000545F46414C534500AA7D0308546F2069ED
:100770006E697469616C697A652064657669636520
:100780003A2573206661696C65642E205468652083
:100790006572726F7220636F6465206973202564CF
:1007A0000A000000B97D03086465762D3E72656617
:1007B0005F636F756E7420213D203000C87D030893
:1007C000D87D0308E77D0308F77D0308097E030849
:1007D000237E03082DE9F04105466FF0020705F07E
:1007E00023FC0646002409E05C4850F8240020B9A8
:1007F0005A4840F82450002702E0641C042CF3D32C
:1008000000BF304605F014FC3846BDE8F0812DE904
:10081000F04105466FF0050705F006FC064600248A
:100820000BE04E4850F82400A84205D100204B4967
:1008300041F82400002702E0641C042CF1D300BF1F
:10084000304605F0F5FB3846BDE8F08170B550E064
:1008500000BF05F0E9FB064601F0E8FE40B1404963
:1008600040A002F0C1FA99223D4948A002F0BFFB26
:10087000304605F0DDFB00BF05F0D6FB054600F075
:1008800065F840B342480068A0F1240404F1240054
:10089000D0E900215160D0E9001211604060006091
:1008A00000BF03F0E3FDD4F8AC0018B12046D4F843
:1008B000AC108847204604F038F8204603F00BFCC3
:1008C000012805D103F0E0FD284605F0B1FB70BD1D
:1008D00003F0DAFD03E0284605F0AAFBF7E7284617
:1008E00005F0A6FBA06B02F0CCFD204603F0C7FB91
:1008F00000BF00F02BF80028AAD100BFE7E70FE007
:10090000002408E0154850F8240018B1134951F8A4
:1009100024008047641C042CF4D3FFF797FF00BF2A
:10092000EEE71FB520201F21C2001A4BCDE900328F
:10093000CDE902100023184A18A11A4804F0B9F9A9
:10094000184804F01AFA1FBD164870471049086885
:10095000884201D0012070470020FCE7700600208B
:100960003D7E030846756E6374696F6E5B25735D2B
:10097000207368616C6C206E6F74206265207573E3
:10098000656420696E204953520A0000300000005F
:100990000801002070050020FF0800087469646CDD
:1009A00065000000BC0400204268116042684A6093
:1009B0004160086070472DE9F04105460C469046BD
:1009C000204604F093FBB8F1000F03D0B8F1010FFB
:1009D00023D105E004F124012846FFF7E5FF1CE0E0
:1009E0002E680FE0A6F1240794F8450097F845100B
:1009F000884206DA04F1240107F12400FFF7D4FF4E
:100A000002E03668AE42EDD100BFAE4204D104F13F
:100A100024012846FFF7C8FF00BF00BF0020BDE843
:100A2000F08170B505460EE005F0FEFA064628682E
:100A3000A0F124044FF0FF302064204604F061F957
:100A4000304605F0F5FA284601F093FD0028EBD07A
:100A5000002070BD2DE9F04104460D4616461F46A4
:100A600024B9CA22FD49FEA002F0C1FA2A4601219A
:100A7000204603F069FA204601F083FDA685A7769B
:100A80000020BDE8F08110B5044624B9E822F849F9
:100A9000F3A002F0ACFA204603F02EFB012804D0AC
:100AA000E922F349F34802F0A2FA204603F013FBCF
:100AB00020B9EA22EE49F0A002F099FA04F12400EC
:100AC000FFF7AFFF204603F06CFA002010BD2DE9C0
:100AD000F04105460E46174600BF05F0A5FA8046D0
:100AE00001F0A4FD48B1F049F0A002F07DF94FF407
:100AF0008372ED49F7A002F07AFA404605F098FAC1
:100B000000BF2946012003F06BFA044614B92046C1
:100B1000BDE8F081204601F034FDA685A776204689
:100B2000F6E770B5044600BF05F07EFA054601F011
:100B30007DFD48B1E849DDA002F056F940F22512EA
:100B4000E549E4A002F053FA284605F071FA00BF27
:100B50002CB94FF49472E049C1A002F048FA204643
:100B600003F0CAFA012805D040F22912DA49C14837
:100B700002F03DFA204603F0AEFA28B14FF4957228
:100B8000D549D6A002F033FA04F12400FFF749FF5B
:100B9000204603F074FA002070BD2DE9F3410546AC
:100BA0002DB94FF4A372DC49ADA002F020FA28461B
:100BB00003F0A2FA012805D040F24712D649AD4809
:100BC00002F015FA00BFD548006818B12846D3498D
:100BD0000968884700BF05F027FA064600BF00BF36
:100BE000A88D002806DDA88D401EA885304605F09A
:100BF0001FFA57E0019830B9304605F019FA6FF046
:100C00000100BDE8FC8100BF05F00EFA074604F0C4
:100C100075F848B9C049C2A002F0E6F840F2671280
:100C2000BD49ACA002F0E3F900BF05F0FDF9804634
:100C300001F0FCFC48B1B8499CA002F0D5F840F2A4
:100C40006712B549A3A002F0D2F9404605F0F0F9C9
:100C500000BF384605F0ECF900BF04F04FF8044639
:100C60000020206400BF00BFAA7E214605F12400B9
:100C7000FFF7A1FE019800280BDD00BF00BF01AA0D
:100C8000002104F1700004F013FD04F1700004F081
:100C900029FC304605F0CCF903F03CFB206C08B190
:100CA000206CAEE700BFAC48006818B12846AA49DE
:100CB0000968884700BF0020A3E710B5044600215B
:100CC0002046FFF76AFF10BD70B504462CB940F20C
:100CD000B312A24962A002F08AF9204603F00CFA8E
:100CE000012805D04FF4DA729C49624802F07FF97E
:100CF00000BF9B48006818B1204699490968884799
:100D000000BF002505F090F9064600BF00BF04F1C2
:100D1000240001F02EFC28B904F1240001F039FC74
:100D2000012502E0A08D401CA085304605F080F929
:100D3000012D01D103F0EEFA002070BD2DE9F04144
:100D400004460E4615462CB94FF4F272854944A06C
:100D500002F04DF9204603F0CFF9012805D040F20A
:100D6000E5128049434802F042F9012E10D12F4686
:100D700005F05AF9804604F12400FFF752FEA785DA
:100D8000404605F055F903F0C5FA0020BDE8F081B2
:100D90004FF0FF30FAE770B504460D4616462CB901
:100DA00040F21122704971A002F021F92A46022175
:100DB000204603F0C9F8204601F0E3FB0120A0859E
:100DC00000202063FF2084F82E00002084F82F00EC
:100DD000A67670BD10B504462CB940F231226849A0
:100DE00062A002F004F9204603F086F9022805D03B
:100DF00040F232226249634802F0F9F8204603F0DB
:100E00006AF928B940F233225D495FA002F0EFF899
:100E100004F12400FFF705FE204603F0C2F800208D
:100E200010BD2DE9F04105460E4600BF05F0FCF867
:100E3000074601F0FBFB48B160491CA001F0D4FF5C
:100E400040F24E225D4923A002F0D1F8384605F069
:100E5000EFF800BF29460220B2E00000537E0308ED
:100E600073656D20213D2052545F4E554C4C00005F
:100E70005F7E0308B806050872745F6F626A656377
:100E8000745F69735F73797374656D6F626A6563AC
:100E900074282673656D2D3E706172656E742E70B8
:100EA0006172656E742900006D7E030846756E637D
:100EB00074696F6E5B25735D207368616C6C206E66
:100EC0006F74206265207573656420696E204953D4
:100ED000520A0000300000007B7E030872745F6FCE
:100EE000626A6563745F69735F73797374656D6F4C
:100EF000626A656374282673656D2D3E7061726544
:100F00006E742E706172656E7429203D3D205254BE
:100F10005F46414C53450000897E0308EC000020E9
:100F200046756E6374696F6E5B25735D20736861CF
:100F30006C6C206E6F74206265207573656420622E
:100F400065666F7265207363686564756C65722091
:100F500073746172740A0000F0000020957E03082B
:100F6000F4000020A47E0308B37E03086D75746549
:100F70007820213D2052545F4E554C4C000000001B
:100F8000C17E03088C07050872745F6F626A65632F
:100F9000745F69735F73797374656D6F626A65639B
:100FA0007428266D757465782D3E706172656E7457
:100FB0002E706172656E742900000000D17E0308F6
:100FC00003F00EF8044614B92046BDE8F08120462F
:100FD00001F0D7FA0120A08500202063FF2084F8CB
:100FE0002E00002084F82F00A6762046EDE770B58D
:100FF000044600BF05F018F8054601F017FB58B18C
:10100000F749AFF2581001F0EFFE40F26F22F449B9
:10101000AFF2401001F0EBFF284605F009F800BFE1
:1010200034B940F27222EE49AFF2C00001F0DFFFA6
:10103000204603F061F8022805D040F27322E84907
:10104000E84801F0D4FF204603F045F828B14FF4FA
:101050001D72E349E4A001F0CAFF04F12400FFF788
:10106000E0FC204603F00BF8002070BD2DE9F341B1
:10107000044600BF04F0D8FF074603F03FFE58B90E
:10108000E949AFF2641001F0AFFE4FF42472E64973
:10109000AFF2C01001F0ABFF00BF04F0C5FF804607
:1010A00001F0C4FA58B1E049AFF2002001F09CFE13
:1010B0004FF42472DC49AFF2E41001F098FF40468F
:1010C00004F0B6FF00BF384604F0B2FF00BF34B9E9
:1010D00040F29322D449AFF26C1001F088FF204611
:1010E00003F00AF8022805D04FF42572CE49BD4816
:1010F00001F07DFF03F002FE054604F095FF064671
:1011000000BFCA48006818B12046C8490968884726
:1011100000BF00BF00BF00202864206BA84205D19B
:1011200094F82F00401C84F82F0050E000BFA08DE1
:1011300000280CDD34F82C0F401E2080656095F8E7
:101140004500A070E078401CE0702C3C3FE0019826
:1011500048B96FF001002864304604F069FF6FF071
:101160000100BDE8FC8100BF00BF95F84500216B80
:1011700091F84510884205DA05F145020221206BFD
:1011800004F036F8A27E294604F12400FFF713FC90
:10119000019800280BDD00BF00BF01AA002105F166
:1011A000700004F085FA05F1700004F09BF93046F8
:1011B00004F03EFF03F0AEF8286C28B1286C09302B
:1011C00000B9B4E7286CCCE704F02EFF06463046A1
:1011D00004F02EFF00BF9648006818B120469449DD
:1011E0000968884700BF0020BBE72DE9F0470446A7
:1011F00034B940F219328F49AFF2902001F0F7FE76
:10120000204602F079FF022805D040F21A328949BF
:10121000744801F0ECFE002600BF04F005FF804694
:1012200003F06CFD58B98349AFF20C3001F0DCFDDE
:1012300040F21F327F49AFF2643001F0D8FE00BFA8
:1012400004F0F2FE814601F0F1F958B17949AFF2AC
:10125000A43001F0C9FD40F21F327649AFF28C3064
:1012600001F0C5FE484604F0E3FE00BF404604F02E
:10127000DFFE00BF03F042FD054604F0D5FE074641
:1012800000BF00BF00BF6C48006818B120466A4923
:101290000968884700BF206BA84209D04FF0FF3093
:1012A0002864384604F0C4FE4FF0FF30BDE8F087F4
:1012B00014F82F0F401E207014F82F0928BB94F843
:1012C0002E00216B91F84510884205D004F12E02C2
:1012D0000221206B03F08CFF04F1240001F049F996
:1012E000A0B9606AA0F1240500BF00BF256395F88E
:1012F000450084F82E0094F82F00401C84F82F003D
:1013000004F1240001F045F9012607E0A08D401CFE
:10131000A08500202063FF2084F82E00384604F0CA
:1013200087FE012E01D102F0F5FF0020BEE770B567
:1013300004460D46164634B94FF45F723F49AFF28A
:10134000D43001F054FE204602F0D6FE022805D02B
:1013500040F27D323949234801F049FE4FF0FF3019
:1013600070BD70B504460D4616462CB940F2923257
:10137000334934A001F03BFE2A460321204602F007
:10138000E3FDA676204601F0FCF80020E06270BD87
:1013900010B504462CB940F2AE322F4929A001F015
:1013A00026FE204602F0A8FE032805D040F2AF3208
:1013B00029492A4801F01BFE204602F08CFE28B97C
:1013C0004FF46C72244926A001F011FE04F12400B0
:1013D000FFF727FB204602F0E4FD002010BD0000CF
:1013E000E17E03088C07050872745F6F626A6563AB
:1013F000745F69735F73797374656D6F626A656337
:101400007428266D757465782D3E706172656E74F2
:101410002E706172656E7429203D3D2052545F46E6
:10142000414C534500000000F17E0308EC00002011
:10143000F0000020FF7E0308F4000020107F030866
:10144000217F03086576656E7420213D2052545F2C
:101450004E554C4C000000002F7F0308480705083C
:1014600072745F6F626A6563745F69735F737973C7
:1014700074656D6F626A65637428266576656E743F
:101480002D3E706172656E742E706172656E742986
:10149000000000002DE9F04105460E4600BF04F0B3
:1014A000C3FD074601F0C2F858B1F949AFF2046034
:1014B00001F09AFC40F2C932F549AFF2E85001F070
:1014C00096FD384604F0B4FD00BF2946032002F023
:1014D00087FD044614B92046BDE8F081A676204673
:1014E00001F04FF80020E0622046F5E770B50446B1
:1014F00034B940F2E732E749AFF2B80001F077FDC6
:10150000204602F0F9FD032805D04FF47A72E14934
:10151000E14801F06CFD204602F0DDFD28B140F20B
:10152000E932DC49DDA001F062FD00BF04F07CFD82
:10153000054601F07BF858B1D649AFF2906001F052
:1015400053FC40F2EB32D349AFF2786001F04FFD2B
:10155000284604F06DFD00BF04F12400FFF761FA96
:10156000204602F08CFD002070BD2DE9F0470446B6
:101570000F4634B940F20A42D849AFF2381001F0B0
:1015800036FD204602F0B8FD032805D040F20B429C
:10159000D249C14801F02BFD1FB94FF0FF30BDE823
:1015A000F0874FF0000804F03FFD8246E06A3843C0
:1015B000E06200BFCA48006818B12046C8490968FF
:1015C000884700BF04F1240000F0D3FFC0BB666A67
:1015D00032E0A6F124054FF0FF3995F8500000F0F5
:1015E000010040B1E86CE16A0840E96C884211D121
:1015F0004FF000090EE095F8500000F0020048B1ED
:10160000E86CE16A084028B1E86CE16A0840E864E7
:101610004FF000093668B9F1000F0DD195F8500070
:1016200000F0040018B1E06AE96C8843E0622846E3
:1016300003F067FB4FF0010804F124008642C8D193
:10164000504604F0F5FCB8F1010F01D102F062FE42
:101650000020A4E72DE9FF4F81B005460E4617464E
:10166000DDF8388000BF04F0DFFC009003F046FB9B
:1016700058B99C49AFF2587001F0B6FB40F26D4288
:101680009849AFF2B07001F0B2FC00BF04F0CCFC9E
:10169000834600F0CBFF58B19249AFF2F07001F0F1
:1016A000A3FB40F26D428F49AFF2D87001F09FFC6E
:1016B000584604F0BDFC00BF009804F0B9FC00BF20
:1016C00035B94FF48E628749AFF2882001F08FFC64
:1016D000284602F011FD032805D040F271428149ED
:1016E0006D4801F084FC26B94FF0FF3005B0BDE82D
:1016F000F08F4FF0FF3903F001FB04460021216415
:1017000000BF7948006818B12846774909688847BA
:1017100000BF04F089FC824607F0010030B1E86A9E
:101720003040B04212D14FF000090FE007F0020044
:1017300028B1E86A304048B14FF0000906E04FF4A4
:1017400092626849AFF6740001F051FCB9F1000FE4
:101750000DD1B8F1000F03D0E86A3040C8F800009E
:1017600007F0040088B3E86AB043E8622DE004980B
:1017700018B96FF00100206427E0E66484F8507027
:10178000AA7E214605F12400FFF715F904980028E8
:1017900009DD04AA002104F1700003F089FF04F1BF
:1017A000700003F09FFE504604F042FC02F0B2FDD0
:1017B000206C08B1206C99E704F036FC8246B8F141
:1017C000000F02D0E06CC8F80000504604F030FC76
:1017D00000BF4648006818B1284644490968884750
:1017E00000BF206C82E72DE9F04104460D46174604
:1017F00034B940F2E2423E49AFF2B83001F0F7FBB3
:10180000204602F079FC032805D040F2E342384933
:10181000214801F0ECFB012D10D104F005FC064637
:1018200004F12400FFF7FDF80020E062304604F0E8
:10183000FFFB02F06FFD0020BDE8F0814FF0FF30AC
:10184000FAE72DE9F04104460D4616461F46DDF83D
:1018500018802CB94FF4A262264927A001F0C7FBDB
:101860002A460421204602F06FFB84F81A802046A5
:1018700000F087FEE662278600206086A086E0866C
:1018800004F1380000F072FE0020BDE8F081000095
:101890003F7F03084F7F03084807050872745F6F96
:1018A000626A6563745F69735F73797374656D6F82
:1018B000626A65637428266576656E742D3E706174
:1018C00072656E742E706172656E7429203D3D20C4
:1018D00052545F46414C5345000000005F7F0308AF
:1018E000F40000206D7F0308EC000020F0000020D1
:1018F0007B7F03088C7F03086D6220213D205254BA
:101900005F4E554C4C00000010B5044634B940F20F
:101910003352FE49AFF2200001F069FB204602F08D
:10192000EBFB042805D040F23452F849F84801F0A6
:101930005EFB204602F0CFFB28B940F23552F34956
:10194000F4A001F054FB04F12400FFF76AF804F15D
:101950003800FFF766F8204602F023FB002010BD98
:101960002DE9F04105460E46174600BF04F05CFB2A
:10197000804600F05BFE58B1F249AFF6D02001F08E
:1019800033FA40F25152EF49AFF6B82001F02FFB85
:10199000404604F04DFB00BF2946042002F020FB26
:1019A000044614B92046BDE8F081A776204600F031
:1019B000E8FD2686218E880001F05EFCE062E06A88
:1019C00020B9204602F05BFB0020ECE70020608697
:1019D000A086E08604F1380000F0C8FD2046E2E76A
:1019E00070B5044600BF04F01FFB054600F01EFE64
:1019F00058B1D549AFF64C3001F0F6F940F27C52BF
:101A0000D149AFF6303001F0F2FA284604F010FB6D
:101A100000BF34B940F27F52CB49AFF2241001F03D
:101A2000E6FA204602F068FB042805D04FF4B062C5
:101A3000C549B74801F0DBFA204602F04CFB28B15B
:101A400040F28152C049C1A001F0D1FA04F1240052
:101A5000FEF7E7FF04F13800FEF7E3FFE06A01F06C
:101A600010FD204602F00BFB002070BD2DE9F74F62
:101A700004460F4634B940F2A752C349AFF288106A
:101A800001F0B5FA204602F037FB042805D04FF4E8
:101A9000B562BD499E4801F0AAFA002603F02EF96E
:101AA000054600BFB948006818B12046B749096823
:101AB000884700BF04F0B8FA8046608E218E8842C5
:101AC00008D1029830B9404604F0B2FA6FF0020033
:101AD000BDE8FE8F69E000202864029828B94046DE
:101AE00004F0A6FA6FF00200F2E700BF04F09CFADF
:101AF000814603F003F958B9A349AFF6DC3001F091
:101B000073F940F2CB52A049AFF6384001F06FFABA
:101B100000BF04F089FA824600F088FD58B19A4966
:101B2000AFF6784001F060F940F2CB529649AFF63B
:101B30005C4001F05CFA504604F07AFA00BF484677
:101B400004F076FA00BFA27E294604F13800FEF7C1
:101B500032FF029800280EDDFEF7F5FA064600BFB8
:101B600000BF02AA002105F1700003F0A1FD05F1FC
:101B7000700003F0B7FC404604F05AFA02F0CAFBCA
:101B8000286C08B1286CA3E704F04EFA804602984E
:101B900000280ADDFEF7D7FA861B0298801B029008
:101BA0000298002801DA00200290608E218E88427F
:101BB00091D0A18EE06A40F82170A08E401CA086D2
:101BC000A08E218E884201DB0020A086608E401C02
:101BD000608604F1240000F0CCFC50B904F124002C
:101BE00000F0D7FC404604F023FA02F093FB0020FB
:101BF0006EE7404604F01CFA002069E770B5044621
:101C00000D46002229462046FFF730FF70BD2DE922
:101C1000F74F04460F4634B940F239625C49AFF2DF
:101C2000283001F0E4F9204602F066FA042805D0D5
:101C300040F23A625649364801F0D9F9002603F0DD
:101C40005DF8054600BF5348006818B12046514969
:101C50000968884700BF04F0E7F98046608E40B904
:101C6000029830B9404604F0E3F96FF00100BDE896
:101C7000FE8FB1E000202864029830B9404604F09D
:101C8000D7F96FF001002864F1E700BF04F0CCF948
:101C9000814603F033F858B93D49AFF67C5001F066
:101CA000A3F840F25F623A49AFF6D85001F09FF9CD
:101CB00000BF04F0B9F9824600F0B8FC58B13449CD
:101CC000AFF6186001F090F840F25F623049AFF66D
:101CD000FC5001F08CF9504604F0AAF900BF4846C8
:101CE00004F0A6F900BFA27E294604F12400FEF705
:101CF00062FE0298002855DDFEF725FA064600BF71
:101D000000BF02AA002105F1700045E0977F03089B
:101D1000D007050872745F6F626A6563745F6973E8
:101D20005F73797374656D6F626A65637428266D7D
:101D3000622D3E706172656E742E706172656E7494
:101D400029000000A47F0308B17F030872745F6F4D
:101D5000626A6563745F69735F73797374656D6FCD
:101D6000626A65637428266D622D3E706172656ECD
:101D7000742E706172656E7429203D3D2052545F4F
:101D800046414C5345000000BE7F0308F40000208C
:101D9000CE7F0308EC00002003F08AFC05F1700000
:101DA00003F0A0FB404604F043F902F0B3FA286CBC
:101DB00008B1286C5BE704F037F9804602980028E8
:101DC0000ADDFEF7C0F9861B0298801B029002987C
:101DD000002801DA00200290608E00283FF44AAF0C
:101DE000E18EE06A50F821003860E08E401CE08609
:101DF000E08E218E884201DB0020E086608E401E4E
:101E0000608604F1380000F0B4FB98B904F13800A2
:101E100000F0BFFB404604F00BF900BFF948006832
:101E200018B12046F7490968884700BF02F072FAE6
:101E300000201CE7404604F0FBF800BFF1480068B2
:101E400018B12046EF490968884700BF00200EE717
:101E50002DE9F04104460D46174634B940F2BF6201
:101E6000E949AFF26C5001F0C2F8204602F044F9A3
:101E7000042805D04FF4D862E349E44801F0B7F8EC
:101E8000012D16D104F0D0F8064604F12400FEF727
:101E9000C8FD04F13800FEF7C4FD00206086A0866E
:101EA000E086304604F0C4F802F034FA0020BDE8C1
:101EB000F0814FF0FF30FAE72DE9F05F04460F465E
:101EC00090469946DDE90AAB2CB940F2FC62D04954
:101ED000D0A001F08CF83A460521204602F034F8F3
:101EE00084F81AB0204600F04CFBC4F82C8009F1AD
:101EF000030020F003002086208E001DBAFBF0F0C6
:101F000060860020A063E0632064002508E0208E46
:101F1000001DE16A05FB0016206C306026646D1C14
:101F2000608EA842F3DC0020A086BDE8F09F10B5CB
:101F300004462CB940F22D72BA49B6A001F057F808
:101F4000204602F0D9F8052805D040F22E72B54996
:101F5000B54801F04CF8204602F0BDF828B940F22F
:101F60002F72B049B1A001F042F804F12400FEF74D
:101F700058FD204602F015F8002010BD70B504464B
:101F800000BF04F051F8054600F050FB48B1B349DA
:101F9000B34800F029FF40F28972B049B1A001F0C6
:101FA00026F8284604F044F800BF2CB940F28C72A1
:101FB000AA4998A001F01BF8204602F09DF80528D8
:101FC00005D040F28D72A549974801F010F82046DF
:101FD00002F081F828B140F28E72A049A2A001F06F
:101FE00006F804F12400FEF71CFDE06A01F049FA4E
:101FF000204602F044F8002070BD2DE9F05F07464E
:10200000884691469A4600BF04F00EF8834600F0D9
:102010000DFB48B1A349924800F0E6FE40F24F7232
:10202000A04990A000F0E3FF584604F001F800BF7B
:102030003946052001F0D4FF044614B92046BDE816
:10204000F09F84F81AA0204600F09BFA08F10300E4
:1020500020F003002086A4F83290218E091D628EA4
:1020600001FB02F001F008F9E062E06A20B92046C5
:10207000FFF784FF0020E2E70020A063E063206414
:10208000002508E0208E001DE16A05FB0016206C8B
:10209000306026646D1C608EA842F3DC0020A086B0
:1020A0002046CCE72DE9F04104460F4616462CB9F0
:1020B00040F2AE727C4957A000F099FF204602F032
:1020C0001BF8052805D040F2AF727749564800F05A
:1020D0008EFF2FB94FF4F662734974A000F087FFAA
:1020E0002EB940F2B172704975A000F080FF208EC9
:1020F000B04203D24FF0FF30BDE8F08100BF73481B
:10210000006818B1204671490968884700BF03F08C
:102110008BFF8046256C2DB9404603F089FF6FF098
:102120000200E9E728682064404603F081FF0020B0
:10213000286032463946281D00F0D7FA03F074FFB4
:102140008046E06B08B1E06B0560E563A06B00B909
:10215000A563A08E401CA08604F1240000F009FABB
:1021600050B904F1240000F014FA404603F060FF77
:1021700002F0D0F80020BFE7404603F059FF0020EE
:10218000BAE72DE9F04104460F4616462CB940F651
:1021900008024F491FA000F02AFF204601F0ACFFC3
:1021A000052805D040F6090249491F4800F01FFFE5
:1021B0002FB940F60A0246493CA000F018FF2EB99C
:1021C00040F60B0242493EA000F011FF208EB042C3
:1021D00003D24FF0FF30BDE8F08100BF3B480068FC
:1021E00018B1204639490968884700BF03F01CFF31
:1021F0008046256C2DB9404603F01AFF6FF00200AF
:10220000E9E767E0F0000020D97F0308D007050860
:10221000E77F03086D7120213D2052545F4E554CDD
:102220004C000000F27F03080007050872745F6F1E
:10223000626A6563745F69735F73797374656D6FE8
:10224000626A65637428266D712D3E706172656ED9
:10225000742E706172656E74290000000C80030892
:10226000AC0E00083000000072745F6F626A656334
:10227000745F69735F73797374656D6F626A6563A8
:102280007428266D712D3E706172656E742E7061BA
:1022900072656E7429203D3D2052545F46414C5377
:1022A00045000000FF7F0308198003086275666619
:1022B000657220213D2052545F4E554C4C00000069
:1022C00073697A6520213D2030000000F400002071
:1022D0002480030828682064404603F0A9FE3246A3
:1022E0003946281D00F001FA03F09EFE8046A06BDF
:1022F0002860A563E06B00B9E563A08E401CA08652
:1023000004F1240000F035F950B904F1240000F084
:1023100040F9404603F08CFE01F0FCFF00205AE734
:10232000404603F085FE002055E72DE9FF4F81B0C0
:1023300004460F46904634B940F662029B49AFF21C
:102340002C1000F054FE204601F0D6FE052805D0E2
:1023500040F663029549964800F049FE37B940F6C9
:1023600064029249AFF2BC0000F041FEB8F1000FE8
:1023700006D140F665028D49AFF2BC0000F037FE91
:102380004FF0000902F0BAFC054600BF894800681A
:1023900018B1204687490968884700BF03F044FE0A
:1023A0008246A08E48B9049838B9504603F040FEE2
:1023B0006FF0010005B0BDE8F08F6BE000BF03F0E7
:1023C00033FE009002F09AFC50B978497A4800F048
:1023D0000BFD40F67B027549AFF2781000F007FE66
:1023E00000BF03F021FE834600F020F958B16F4989
:1023F0007148743800F0F8FC40F67B026B49AFF28C
:102400009C1000F0F4FD584603F012FE00BF009847
:1024100003F00EFE00BF00202864049830B9504637
:1024200003F006FE6FF001002864C3E7A27E294690
:1024300004F12400FEF7BFFA049800280EDDFDF732
:1024400082FE814600BF00BF04AA002105F1700092
:1024500003F02EF905F1700003F044F8504603F044
:10246000E7FD01F057FF286C08B1286CA2E703F0E4
:10247000DBFD8246049800280CDDFDF764FEA0EB2E
:1024800009090498A0EB090004900498002801DAD7
:1024900000200490A08E002890D0A66B3068A06326
:1024A000E06BB04201D10020E063A08E401EA08608
:1024B000504603F0BDFD208E404501D2208E00E045
:1024C00040460246311D384600F00FF903F0ACFDDE
:1024D0008246206C30602664504603F0A9FD00BFA0
:1024E0003648006818B1204634490968884700BF5B
:1024F00000205FE72DE9F04104460E46904634B9CE
:1025000040F6EA022E49AFF2F42000F070FD2046BA
:1025100001F0F2FD052805D040F6EB0228492448D9
:1025200000F065FD012E1ED103F07EFD074604F18B
:102530002400FEF776FA0AE0A56B2868A063E06B3A
:10254000A84201D10020E063206C28602564A06BC4
:102550000028F1D1A086384603F06AFD01F0DAFECA
:102560000020BDE8F0814FF0FF30FAE740600060E6
:10257000704701460868884201D101207047002059
:10258000FCE710B5044604F12400FFF7EFFF00203C
:1025900010BD70B504462068A0F1240500BF00BF3F
:1025A000284602F0AEFB002070BD00003180030819
:1025B00000070508EC000020200F0008F0000020B4
:1025C0003C8003081B49086070471B49086070473E
:1025D00010B500BF00BF03F027FD04461748007880
:1025E000401C1649087000BF1248006810B111481D
:1025F0000068804700BF204603F01AFD10BD10B5EB
:1026000000BF00BF03F010FD04460C480078401ED8
:102610000A49087000BF0848006810B10648006801
:10262000804700BF204603F003FD10BD034800783B
:102630007047000004000020080000200C0000206B
:1026400010B5FFF7F3FF10B1FB48006810BD02F0B2
:1026500055FB044614B9F8480068F7E7206CF5E725
:1026600070B50446FFF7E2FF10B1F348046070BD97
:1026700002F044FB054615B9EF480460F7E72C6407
:1026800000BFF4E710B5FFF7D1FF08B1EA4810BD6D
:1026900002F034FB044614B104F14000F7E7E648C9
:1026A000F5E7F0B50C460546E6B2042A15D300F06E
:1026B000030797B9014646EA062343EA034304E0C9
:1026C00008C108C108C108C1103A102AF8D201E0B7
:1026D00008C1121F042AFBD20D4601E005F8016B68
:1026E000171EA2F10102F9D1F0BD2DE9F0410F460C
:1026F000164604463D463346102B28D305F0030CFE
:1027000004F003084CEA080CBCF1000F1FD121466D
:102710002A4610E052F804CB41F804CB52F804CB1F
:1027200041F804CB52F804CB41F804CB52F804CB67
:1027300041F804CB103B102BECD204E052F804CB50
:1027400041F804CB1B1F042BF8D20C46154603E0BE
:1027500015F801CB04F801CBB3F1000CA3F1010390
:10276000F6D1BDE8F08170B50C46014623468B4298
:1027700010D29D188D420DD91144134405E05D1E01
:102780002B462E784D1E29462E70151EA2F10102F1
:10279000F5D108E003E013F8015B01F8015B151EB9
:1027A000A2F10102F7D170BDF0B5034600201C462E
:1027B0000D4608E026782F78F61B301E00D004E086
:1027C000641C6D1C521E002AF4D800BFF0BD0146E7
:1027D0000A4600E0521C10780028FBD1501A7047BE
:1027E000F0B506460F463846FFF7F1FF05460DB92E
:1027F0003046F0BD3046FFF7EAFF044609E0641EAC
:102800002A4639463046FFF7CFFF08B93046F0E791
:10281000761CAC42F3DA0020EBE730B503460C46F9
:1028200000BF13F8011B14F8012B412902DB5A29C0
:1028300000DC2031412A02DB5A2A00DC203291429E
:1028400001D10029EDD1881A30BD70B50346A2B17F
:1028500018460C4600BF14F8016B00F8016B3EB936
:1028600002E0002500F8015B551E2A1EF9D102E0A6
:10287000551E2A1EEFD100BF00BF184670BD30B5EF
:10288000034600200BE011F8015B1C78641B64B266
:10289000201E02D113F8015B05B902E0521E002A86
:1028A000F1D100BF30BD024601E0521C491C107836
:1028B00018B110780B789842F7D010780B78C01ABE
:1028C000704702460B46114600E0491C087810B1DB
:1028D000881A9842F9D3881A704770B50446204682
:1028E000FFF775FF451C284600F0C6FC06460EB9EA
:1028F000002070BD2A4621463046FFF7F6FE3046DE
:10290000F7E770472DE9F04F86B00D469C46DDE9AC
:10291000106401960F9B04F04008B8F1000F02D03C
:10292000DFF8188101E0DFF81881CDF8008004F0AD
:102930001008B8F1000F01D024F0010404F00108E0
:10294000B8F1000F02D04FF0300801E04FF020083E
:10295000C246002704F00208B8F1000F11D0002A87
:1029600002DA2D2752420CE004F00408B8F1000FFF
:1029700001D02B2705E004F00808B8F1000F00D0C3
:102980002027002142B94FF0300B8846491C0DF139
:10299000080909F808B01DE01AE0E146B9F10A0F8C
:1029A00008D14FF00A0BB2FBFBFE0BFB1E28B2FB5B
:1029B000FBF202E002F00F08120900BFDDF8009000
:1029C00019F808B08846491C0DF1080909F808B043
:1029D000002AE2D1B14200DD0E469B1B04F0110833
:1029E000B8F1000F10D117B1002B00DD5B1E06E01F
:1029F000A84203D84FF0200880F80080401CB3F1B3
:102A00000008A3F10103F3DC27B1A84201D8077045
:102A10005B1E401C04F01008B8F1000F0AD104E05E
:102A2000A84201D880F800A0401CB3F10008A3F12F
:102A30000103F5DC0DE00000100000205B810308BD
:102A40004A810308A84203D84FF0300880F800807C
:102A5000401CB046761E8845F4DC08E0A84205D844
:102A60000DF1080818F8018080F80080401CB1F1D1
:102A70000008A1F1010104DDDDF80480B8F1000FC8
:102A8000ECD106E0A84203D84FF0200880F800807F
:102A9000401CB3F10008A3F10103F3DC06B0BDE86C
:102AA000F08F0146002009E00B685A1C0A601A7872
:102AB00000EB800302EB4302A2F130000A681278B7
:102AC000303A0A2AF0D370472DE9FF4F89B080468B
:102AD00044460A984044461E464504D24FF0FF360D
:102AE000A6EB08000A906FE10B980078252806D025
:102AF000B44202D80B9800782070641C61E1002574
:102B000026E00B98401C0B900B9800782D2802D1E2
:102B100045F010051CE00B9800782B2802D145F0F9
:102B2000040515E00B980078202802D145F008052F
:102B30000EE00B980078232802D145F0200507E02D
:102B40000B980078302802D145F0010500E000E044
:102B5000D7E700BF4FF0FF370B98007830380A28CE
:102B600004D20BA8FFF79DFF07460EE00B980078F4
:102B70002A280AD10B98401C0B900C9880C80C9006
:102B8000002F02DA7F4245F010054FF0FF390B9815
:102B900000782E281CD10B98401C0B900B980078C5
:102BA00030380A2804D20BA8FFF77BFF81460AE0E1
:102BB0000B9800782A2806D10B98401C0B900C9893
:102BC00050F8049B0C90B9F1000F01DA4FF00009A6
:102BD000002004900B980078682803D00B980078A8
:102BE0006C2805D10B98007804900B98401C0B9032
:102BF0000A2005900B9800786F2875D00CDC6328AC
:102C000013D004DC252870D058286FD18DE06428BB
:102C10006DD06928F9D18FE070286AD0732825D04B
:102C2000752878D07828F0D182E005F0100040B9FE
:102C300004E0B44201D820202070641C781E071ED6
:102C4000F7DC0C9810F8041B0C90C8B20790B44243
:102C500001D807982070641C04E0B44201D82020F9
:102C60002070641C781E071EF7DCAAE00C98006830
:102C700006900C98001D0C90069808B9EAA00690E2
:102C80000698FFF7A4FD8346B9F1000F02DDCB459E
:102C900000DDCB4605F0100048B904E0B44201D88D
:102CA00020202070641C38467F1E5845F6DC00202A
:102CB00008900BE0B44202D8069800782070641C9B
:102CC0000698401C06900898401C089008985845A3
:102CD000F0DB04E0B44201D820202070641C3846A8
:102CE0007F1E5845F6DC6CE01CE015E028E022E091
:102CF000FFE7781C10B9082745F00105CDE90079F8
:102D000002950C9804C8102331460C902046FFF71A
:102D1000F9FD044655E012E0B44201D825202070A8
:102D2000641C4EE0082005901DE045F0400500BF02
:102D30001020059017E000BF45F0020500BF12E02B
:102D4000B44201D825202070641C0B98007830B163
:102D5000B44202D80B9800782070641C02E00B98F3
:102D6000401E0B902DE000BF04986C2807D10C98F2
:102D700050F804AB0C9005F00200B8B116E00498CE
:102D800068280BD10C9830F8041B1FFA81FA0C90BC
:102D900005F0020050B10FFA8AFA07E00C9850F8DB
:102DA00004AB0C9005F0020000B100BFCDE9007942
:102DB0000295524631462046059BFFF7A3FD044687
:102DC00000BF0B98401C0B900B98007800287FF4F4
:102DD0008BAEB44201D8207001E000203070A4EB2B
:102DE00008000DB0BDE8F08F0FB438B505A800900D
:102DF0007F218F48009B049AFFF766FE04467F2CD4
:102E000000D97F248B48006818B98948FFF779FDFD
:102E100015E088480068058D86480068008D40F000
:102E200040008449096808852346814A0021814879
:102E30000068FDF7AFFB7F480068058500BF0020F4
:102E4000009038BC5DF814FB08B57BA0FFF7CCFF01
:102E50007CA0FFF7C9FF84A0022301220321009078
:102E600084A0FFF7C1FF8BA0FFF7BEFF08BD0FB422
:102E7000F8B504460D4609A8009029462046009B57
:102E8000089AFFF721FE0646002000903046F8BC65
:102E90005DF814FB37B505460C4622464FF0FF316E
:102EA0002846029BFFF710FE3EBD0FB438B504461E
:102EB00006A800902046009A0599FFF7EBFF05460B
:102EC00000200090284638BC5DF814FB5948006883
:102ED000704770B50546574806682846FDF7D6F98D
:102EE000044664B15348006818B152480068FDF7C1
:102EF000EEFA43212046FDF790FA4E480460304632
:102F000070BD70B5044604B970BD4A48006818B970
:102F10002046FFF7F6FC19E046480068058D454855
:102F20000068008D40F0400042490968088520464D
:102F3000FFF74DFC06463346224600213D48006817
:102F4000FDF728FB3B480068058500BF00BFDBE7B5
:102F50002DE9F04107460C46E01C20F00304F81C64
:102F600020F0030000EB0408404600F085F9054618
:102F700065B1601E284008B92E1904E0601E28447F
:102F8000611E20EA010646F8045C35462846BDE885
:102F9000F08170B5044654F8045C284600F071FADC
:102FA00070BD014609B900207047C8B220B1C8B24F
:102FB000434A105C401CF7E701F47F4028B14048C9
:102FC000C1F30722805C0930EEE701F47F0028B1ED
:102FD0003B48C1F30742805C1130E5E7384800EB1D
:102FE000116000781930DFE7364908607047F8B59E
:102FF00004460D461646002000903248006858B935
:1030000033462A46214630A0FFF7EEFE00BF9DF86A
:1030100000000028FBD005E0324629462046294B17
:103020001B689847F8BD0000284E554C4C290000FD
:1030300080060020140000200A205C207C202F0A3B
:10304000000000002D205254202D2020202020544C
:103050006872656164204F7065726174696E672083
:1030600053797374656D0A005365702032392032CC
:1030700030313900202F207C205C2020202020258A
:10308000642E25642E2564206275696C6420257386
:103090000A0000002032303036202D203230313905
:1030A00020436F7079726967687420627920727446
:1030B0002D746872656164207465616D0A0000009A
:1030C0004A800308180000202825732920617373A3
:1030D000657274696F6E206661696C6564206174E5
:1030E0002066756E6374696F6E3A25732C206C6967
:1030F0006E65206E756D6265723A2564200A000067
:10310000F54908607047F5490860704770B5044696
:10311000F3480068844204D2A222F249F2A0FFF7E9
:1031200066FFF9480068844204D3A322ED49F7A062
:10313000FFF75DFF608820B1A422EA49FEA0FFF7F7
:1031400056FFE749606809684518AC4215D06888A1
:1031500098B9ED48006885420FD0FB480068A84246
:1031600001D1F948046068686060DD480068201A91
:10317000DB4A6968126811448860D949A068096807
:103180004618A64211D0708878B9EF480068A0426E
:1031900001D1ED48066060687060D1480068301A5F
:1031A000CF4A616812681144886070BD2DE9F0470C
:1031B00005460E46E81C20F0030726F0030800BF72
:1031C00002F032FF8146FFF731FA40B1DF49E0A05B
:1031D000FFF70AFED322DD49E7A0FFF708FF4846C4
:1031E00002F026FF00BFB8F1180F09D9A8F11800A6
:1031F000B84205D3A8EB07001838E049086006E09C
:1032000032462946DEA0FFF7EFFDBDE8F087B4485F
:10321000076000BF00BF04684FF4F5502080D74816
:1032200000680C3060600020A0606080AC4960687D
:1032300009680844B44908604FF4F55009680880EB
:103240000120B14909684880CC4800680C30AE497B
:1032500009684860C94800680C30AB490968886053
:1032600000230122D5A1D748FDF7F4FB9C48006854
:10327000B549086000BFC8E72DE9F047054600BF23
:1032800002F0D2FE8146FFF7D1F948B1CE49B0A095
:10329000FFF7AAFD4FF48B72CB49B7A0FFF7A7FE4B
:1032A000484602F0C5FE00BF15B90020BDE8F08712
:1032B000E81C20F00300A84201D000BF01E000BFDD
:1032C00000BFE81C20F00305AC480068854203D924
:1032D00000BF00BF0020E9E70C2D00D20C254FF005
:1032E000FF31B848FDF759FC974800687C490968E8
:1032F000461ABBE07A4800688419608800287BD1B0
:1033000006F10C006168081AA84275D306F10C009A
:103310006168091A05F11800814230D306F10C00EA
:1033200000EB05086E48006800EB08074FF4F55005
:1033300038800020788060687860BE60C4F80480BF
:10334000012060808D48796800680C30814205D08A
:103350006349786809680844C0F808809B48016898
:1033600005F10C000844994908609948006809680B
:10337000884219D2954800689549086014E00120F8
:103380006080574960680968611A401A8F49096866
:1033900008448E4908608E4800680968884203D254
:1033A0008A4800688A4908604FF4F55020806648D2
:1033B0000068844224D107E06348006840684849B7
:1033C00009680844604908605F480068408828B17F
:1033D0005D4800684C4909688842EDD15A48006848
:1033E0004949096888420BD057480068408838B17D
:1033F00040F28312744900E034E076A0FFF7F7FD55
:103400007048FDF761FC04F10C0028443E4909684E
:10341000884205D940F287126B497848FFF7E7FDEB
:1034200004F0030028B14FF4C47267497448FFF7F1
:10343000DEFD04F0030028B140F28912624971A058
:10344000FFF7D5FD00BF00BF00BF2348006828B1CB
:10345000294604F10C00204A1268904700BF04F18D
:103460000C0023E71E480068304446684348006863
:10347000401BB0423FF63EAF5248FDF725FC00200E
:1034800014E770B5054600BF02F0CEFD0646FFF713
:10349000CDF848B167492EA0FFF7A6FC40F22922DB
:1034A000644935A0FFF7A3FD304602F0C1FD00BF1F
:1034B00005B970BD05F0030028B140F22D225D4929
:1034C0005DA0FFF794FD06480068854202D30E48D0
:1034D0000068CBE0CCE000001C00002020000020B1
:1034E000240000206C8103082872745F75696E7473
:1034F000385F74202A296D656D203E3D2068656126
:10350000705F707472000000280000202872745FE1
:1035100075696E74385F74202A296D656D203C20B2
:103520002872745F75696E74385F74202A29686523
:1035300061705F656E6400006D656D2D3E7573652D
:1035400064203D3D203000002C00002077810308DE
:1035500046756E6374696F6E5B25735D2073686179
:103560006C6C206E6F7420626520757365642069D1
:103570006E204953520A0000300000003000002045
:103580006D656D20696E69742C206572726F722092
:10359000626567696E206164647265737320307858
:1035A00025782C20616E6420656E642061646472ED
:1035B00065737320307825780A00000068656170B3
:1035C00000000000000700208B8103083400002069
:1035D0003800002028286C66726565203D3D206813
:1035E0006561705F656E6429207C7C2028216C6693
:1035F0007265652D3E75736564292900BC08050850
:103600001408050828282872745F75696E743332AF
:103610005F74296D656D292026202852545F414C26
:1036200049474E5F53495A45202D20312929203DD5
:103630003D203000AA81030828282872745F75692C
:103640006E7433325F7429726D656D2920262028CF
:1036500052545F414C49474E5F53495A45202D20F3
:10366000312929203D3D203000000000854205D34E
:1036700040F22E22A449A548FFF7B9FC00BFA44898
:10368000006818B12846A2490968884700BFA148C8
:103690000068854203D3A0480068854202D300BF7A
:1036A00000BF06E7A5F10C0400BF00BF4FF0FF31DB
:1036B0009A48FDF772FA608818B12088B0F5F55F76
:1036C00008D097A0FFF790FB2388628821469BA033
:1036D000FFF78AFB608828B940F24D228A49A3A0EF
:1036E000FFF785FC2088B0F5F55F05D040F24E224B
:1036F0008549A1A0FFF77BFC002060804FF4F550C6
:103700002080A4480068844201D2A2480460814914
:1037100060680968611A401A9F490968081A9E4939
:1037200008602046FFF7F2FC7C48FDF7CDFA00BFA9
:10373000BFE62DE9F84F06460C4600BF02F074FCC8
:103740000090FEF773FF58B19449AFF2FC10FFF7F9
:103750004BFB40F2AD129149AFF2E410FFF747FC8A
:10376000009802F065FC00BFE01C20F003048C48C8
:103770000068844204D900BF00BF0020BDE8F88F74
:1037800024B93046FFF77DFE0020F7E71EB920463A
:10379000FFF772FDF2E74FF0FF316048FDF7FDF9EA
:1037A0005C480068864203D35B480068864204D3C5
:1037B0005A48FDF789FA3046E0E7A6F10C0855486B
:1037C0000068A8EB0009D8F80400A0EB0900A0F1FC
:1037D0000C07A74204D15148FDF776FA3046CDE7F1
:1037E00004F11800B8422DD2381B6B490968081A39
:1037F0006949086009F10C0000EB040A45480068BB
:1038000000EB0A054FF4F550288000206880D8F8B6
:1038100004006860C5F80890C8F804A060486968AA
:1038200000680C30814205D03A496868096808444C
:10383000C0F808A02846FFF769FC3848FDF744FAAD
:1038400030469BE73548FDF73FFA2046FFF714FD69
:103850008346BBF1000F0CD0A74201D2384600E0EE
:103860002046024631465846FEF73FFF3046FFF7F6
:1038700008FE584682E72DE9F04104460D4600BF98
:1038800002F0D2FB0746FEF7D1FE58B14549AFF230
:103890004030FFF7A9FA40F212224249AFF2283035
:1038A000FFF7A5FB384602F0C3FB00BF04FB05F0A1
:1038B000FFF7E2FC06462EB104FB05F2002130467C
:1038C000FEF7EFFE3046BDE8F08110B1344B1B68C7
:1038D000036011B1304B1B680B6012B1324B1B6897
:1038E0001360704710B52E48016830A0FFF77CFACE
:1038F0002948016832A0FFF777FA2B48016835A004
:10390000FFF772FA10BD0000AA81030860080508DD
:1039100020000020240000202800002000070020B4
:10392000746F206672656520612062616420646145
:10393000746120626C6F636B3A0A00006D656D3ACA
:10394000203078253038782C207573656420666CBB
:1039500061673A2025642C206D6167696320636F7D
:1039600064653A203078253034780A006D656D2D15
:103970003E757365640000006D656D2D3E6D616779
:103980006963203D3D20484541505F4D41474943D3
:10399000000000002C000020340000209581030866
:1039A00030000020A081030838000020746F74618B
:1039B0006C206D656D6F72793A2025640A000000F5
:1039C00075736564206D656D6F7279203A2025648A
:1039D0000A0000006D6178696D756D20616C6C6F17
:1039E0006361746564206D656D6F72793A2025643A
:1039F0000A000000F84908607047F84908607047FD
:103A00002DE9F0470446884691469A46089E24B917
:103A10006522F349F3A0FFF7EAFA42460721204660
:103A200000F092FAC4F824902AF00300A062F01C7F
:103A300020F00306E662D4E90A10001DB1FBF0F0A5
:103A40006063606BA06304F13C0000F0BBF90020F0
:103A50006064676A002507E0681C311D00FB017186
:103A6000301D684339506D1C606BA842F4D80022A9
:103A7000681E311D48433A5027630020BDE8F08797
:103A800070B5044624B99822DA49D6A0FFF7AFFAF8
:103A9000204600F031FB072804D09922D549D6A052
:103AA000FFF7A5FA204600F016FB20B99A22D1496B
:103AB000E0A0FFF79CFA11E002F0B6FA0646E06BD0
:103AC000A0F124054FF0FF302864284601F019F9D1
:103AD000606C401E6064304602F0AAFA04F13C00BB
:103AE00000F073F90028E7D0204600F05AFA0020D1
:103AF00070BD2DE9F04781468846154600BF02F0AB
:103B000093FA8246FEF792FD40B1D449D4A0FFF764
:103B10006BF9CF22D149DCA0FFF769FA504602F0D9
:103B200087FA00BF4946072000F05AFA044614B944
:103B30000020BDE8F087E81C20F00305E562281DA1
:103B400000FB08F0A062291D01FB08F0FFF794FBC1
:103B50006062606A20B9204600F091FA0020E8E730
:103B6000C4F83480606BA06304F13C0000F02AF9D3
:103B700000206064676A002607E0701C291D00FBB6
:103B80000171281D70433950761C606BB042F4D827
:103B90000022701E291D48433A5027632046C8E77B
:103BA0002DE9F041044600BF02F03EFA0746FEF759
:103BB0003DFD48B1B549AAA0FFF716F940F20B1236
:103BC000B249B1A0FFF713FA384602F031FA00BF4C
:103BD0002CB94FF48772AD4982A0FFF708FA20464E
:103BE00000F08AFA072805D040F20F12A74982A0F8
:103BF000FFF7FDF9204600F06EFA28B14FF4887205
:103C0000A249A3A0FFF7F3F911E002F00DFA06466E
:103C1000E06BA0F124054FF0FF302864284601F046
:103C200070F8606C401E6064304602F001FA04F1E6
:103C30003C0000F0CAF80028E7D0606AFFF721FCDA
:103C4000204600F01CFA0020BDE8F0812DE9F34782
:103C500004464FF0000801F051F8064602F0E4F97E
:103C600007465EE0019848B9384602F0E1F96FF086
:103C70000100FEF7F5FC0020BDE8FC8700BF02F064
:103C8000D3F98146FEF7D2FC48B18E4974A0FFF704
:103C9000ABF84FF4AC728B497BA0FFF7A8F948460C
:103CA00002F0C6F900BF00203064304601F01EFA71
:103CB00004F13C0006F124010268516002680A60C8
:103CC0000160486000BF606C401C6064019800287F
:103CD0000CDDFCF738FA804601AA002106F17000DD
:103CE00001F0E6FC06F1700001F0FCFB384602F042
:103CF0009FF900F00FFB306C08B10020BCE7019881
:103D000000280BDDFCF71FFAA0EB08000199081A48
:103D100001900198002801DA0020019002F084F956
:103D20000746A06B00289DD0A06B401EA063256BAA
:103D30002DB940F28512634963A0FFF758F928684E
:103D400020632C60384602F073F900BF22480068F7
:103D500020B1291D2046204A1268904700BF281D27
:103D60008AE72DE9F04105462E1F346800BF1B4845
:103D7000006820B129462046184A1268904700BFC3
:103D800002F052F98046A06B401CA063206B3060AB
:103D90002663606C88B1E06BA0F1240700203864D2
:103DA000384600F0AEFF606C401E6064404602F092
:103DB0003FF900F0AFFABDE8F081404602F038F973
:103DC00000BFF8E74060006070470146086888421D
:103DD00001D10120704783E03C000020400000201A
:103DE000B28103086D7020213D2052545F4E554C26
:103DF0004C000000BD81030872745F6F626A6563E6
:103E0000745F6765745F7479706528266D702D3EE8
:103E1000706172656E7429203D3D2052545F4F627F
:103E20006A6563745F436C6173735F4D656D506F5A
:103E30006F6C000072745F6F626A6563745F6973B0
:103E40005F73797374656D6F626A65637428266D3C
:103E5000702D3E706172656E74290000CA8103087E
:103E600046756E6374696F6E5B25735D2073686160
:103E70006C6C206E6F7420626520757365642069B8
:103E80006E204953520A000030000000D781030819
:103E900072745F6F626A6563745F69735F7379736D
:103EA00074656D6F626A65637428266D702D3E704F
:103EB0006172656E7429203D3D2052545F46414C2D
:103EC00053450000E4810308626C6F636B5F70749C
:103ED0007220213D2052545F4E554C4C0000000092
:103EE000002070470268516002680A600160486003
:103EF0007047D0E900215160D0E9001211604060A4
:103F000000607047A64908607047A649086070477E
:103F1000A54908607047A54908607047A449086032
:103F200070477047024600210AE0A24800EB0110EA
:103F30000078904203D19F4800EB01107047491C64
:103F40000A29F2DB0020F9E72DE9F04104460D468D
:103F500016462846FFF7E6FF074627B9FA22964994
:103F600096A0FFF744F845F08000607619223146AC
:103F70002046FEF76AFC00BF8948006818B1204659
:103F800087490968884700BF02F04EF8804604F16F
:103F90001C01381DFFF7A6FF404602F049F8BDE8B6
:103FA000F08170B504462CB940F2251289498AA0E7
:103FB000FFF71DF800BF7B48006818B1204679491B
:103FC0000968884700BF0020607602F02DF805469A
:103FD00004F11C00FFF78DFF284602F029F870BDA0
:103FE0002DE9F04706460F4600BF02F01DF8814656
:103FF000FEF71CFB48B17D497DA0FEF7F5FE4FF4AE
:10400000A4727A4984A0FEF7F2FF484602F010F845
:1040100000BF3046FFF786FF05462DB94FF4A67264
:10402000724966A0FEF7E3FFE868FFF725F904464A
:1040300014B90020BDE8F08700212046EA68FEF7A9
:1040400030FB66760020A076192239462046FEF71E
:10405000FCFB00BF5248006818B12046504909686F
:10406000884700BF01F0E0FF804604F11C01281DD5
:10407000FFF738FF404601F0DBFF2046DAE770B576
:1040800004462CB94FF4C372644953A0FEF7AFFF46
:10409000607E00F0800028B140F287125F4960A086
:1040A000FEF7A5FF00BF3F48006818B120463D4914
:1040B0000968884700BF0020607601F0B5FF05461B
:1040C00004F11C00FFF715FF284601F0B1FF204660
:1040D000FFF7D7F970BD10B504462CB94FF4D47270
:1040E0005A493DA0FEF783FF607E00F0800008B1D2
:1040F000012010BD0020FCE710B504462CB940F2A9
:10410000BB12534934A0FEF772FF607E20F080009E
:1041100010BD2DE9F04705460E464FF00008002778
:1041200000240DB10B2E02DD0020BDE8F08700BF9A
:1041300001F07AFF8146FEF779FA48B145492CA093
:10414000FEF752FE40F2D712424933A0FEF74FFF6E
:10415000484601F06DFF00BF00F088F954B93046C1
:10416000FFF7E0FE04462CB94FF4F072394913A072
:10417000FEF73DFF67680CE0A7F11C0819222946ED
:104180004046FEF77CFB18B900F07EF94046CCE7CC
:104190003F68201D8742EFD100F076F90020C4E788
:1041A000E4000020E8000020EC000020F0000020E7
:1041B000F400002044000020F0810308696E666F5F
:1041C000726D6174696F6E20213D2052545F4E55AF
:1041D0004C4C0000FF8103086F626A656374202104
:1041E0003D2052545F4E554C4C0000001082030895
:1041F00046756E6374696F6E5B25735D20736861CD
:104200006C6C206E6F742062652075736564206924
:104210006E204953520A0000300000002382030838
:1042200021286F626A6563742D3E7479706520265B
:104230002052545F4F626A6563745F436C617373AD
:104240005F537461746963290000000034820308BD
:104250004E820308618203089C490860704770B56C
:10426000044624B94B229A499AA0FEF7C0FEA06BDF
:104270000078232809D1A16BE06A884205D9D4E9E6
:104280000E010844E16A88420CD2214696A0FEF74E
:10429000ABFD1BF014FA01F0C7FE054600BF002D70
:1042A000FDD108E0A06B2030E16A814203D82146AD
:1042B00094A0FEF799FD70BD10B50020A0490880BC
:1042C00000BF00BF002405E09E4901EBC40000F0E0
:1042D000FAF8641C202CF7DB1F209B490870002093
:1042E0009A4908609A4908609A4800F0ECF810BDB5
:1042F00070B597480068FEF754FE451E914850F887
:104300003500A0F124049148046004F12C0001F070
:10431000C0FE70BD2DE9F04101F086FE07468848D9
:104320000088002841D18A480068FEF73AFE461E00
:10433000844850F83600A0F1240484480068844280
:104340002FD081490E7081480568046000BF5F4826
:10435000006820B1214628465C4A1268904700BF99
:1043600000BF00BF2046FFF77AFF7B48007860B9A6
:1043700004F12C0105F12C0001F05DFE384601F03E
:1043800057FE012000F0EFF80EE000BF00BF04F17F
:104390002C0105F12C0001F04EFE384601F048FEDC
:1043A00002E0384601F044FE02E0384601F040FEEB
:1043B000BDE8F08170B504462CB94FF48E726749A0
:1043C00044A0FEF714FE01F02FFE054614F8440F3A
:1043D00020F00F0040F0010020706278443C594BFF
:1043E00003EBC20004F124014268116042684A6094
:1043F0004160086000BF00BF00BF5549A06C09685C
:10440000084353490860284601F012FE70BD70B59C
:1044100004462CB94FF4A57251492EA0FEF7E7FDD2
:1044200001F002FE054600BF00BF04F12400D0E900
:1044300000215160D0E9001211604060006000BFAF
:1044400094F845103F4A02EBC1000168814201D156
:10445000012100E0002129B13D48A16C006888439A
:104460003B490860284601F0E3FD70BD10B501F03E
:10447000DBFD044632480088401C00B23049088009
:10448000204601F0D5FD10BD10B501F0CDFD04466C
:104490002B480088401E00B2294908800846B0F920
:1044A0000000002807DC00200880204601F0C0FD45
:1044B000FFF730FF02E0204601F0BAFD10BD2048B2
:1044C000008880B270474060006070471001002093
:1044D0007082030874687265616420213D20525423
:1044E0005F4E554C4C0000007468726561643A255B
:1044F0007320737461636B206F766572666C6F777F
:104500000A0000007761726E696E673A2025732099
:10451000737461636B20697320636C6F73652074BF
:104520006F2074686520626F74746F6D206F6620F1
:10453000737461636B20616464726573732E0A0027
:10454000F80000203007002000010020FC000020BF
:1045500004010020080100200C0000208A820308CA
:10456000A482030870472DE9F047804600F0C6FB9F
:10457000044601F059FD8246D4E91501084000289F
:104580003AD094F8440000F02000002834D124E010
:10459000656E05B926E0A86810B90020606602E0E3
:1045A000A868083860662E88206E50F8267050463D
:1045B00001F03EFD0FB13046B84701F035FD8246AF
:1045C0000121B140606D884360656FF0080928469D
:1045D000FFF7C7FBC4F8409000BFD4E915010840BD
:1045E0000028D5D100BFB8F1010F05D194F84400DF
:1045F00020F0100084F84400504601F019FDBDE899
:10460000F08770B5054600F079FB04460020FFF7FF
:10461000AAFF01F009FDE06DE0620020E06594F87A
:10462000440020F0100084F8440004F12C0001F054
:1046300030FD70BD70B50446D4E91501084000B9DD
:1046400070BD01F0F1FC054694F8440000F00F0045
:1046500002280ED1204600F054FB94F8440040F0AC
:10466000100084F84400284601F0E2FCFFF752FEF7
:104670002FE000F043FBA0420CD194F8440040F03E
:10468000100084F84400284601F0D2FC0120FFF716
:104690006AFF1EE094F8440000F01000B0B994F8EE
:1046A000440040F0100084F84400E06AE065E06DEA
:1046B000A0F1200200231946F14801F0C5F9E0629B
:1046C000284601F0B5FCFFF725FE02E0284601F080
:1046D000AFFC00BFB4E72DE9F04106468020FEF7AD
:1046E000CBFD05462DB94FF4AF72E649E6A0FEF7C3
:1046F0007EFC002403E0E94845F82400641C202CDB
:10470000F9DB01F091FC07463566384601F090FC74
:10471000BDE8F0812DE9F04104460E46002700F087
:10472000EDFA0546002C01DB202C03DB6FF00100C5
:10473000BDE8F081FFF79AFE286E10B92846FFF712
:10474000CAFF286E98B1286E50F82470F01C20B96A
:104750000020296E41F8240009E0701C20B9CF48E0
:10476000296E41F8240002E0286E40F82460FFF72B
:104770008BFE3846DCE770B5044600F0BFFA05460C
:1047800001F052FC06460121A140A86D8843A865AE
:10479000304601F04DFC70BD70B5054600F0AEFA34
:1047A000044601F041FC06460121A940A06D0843E2
:1047B000A065D4E91510084030B1304601F038FC4E
:1047C0002046FFF737FF02E0304601F031FC70BDB4
:1047D0002DE9F74F82B006460F464FF0000A00F071
:1047E0008DFA04460025A84600BF01F01DFC01908B
:1047F00000F084FA40B9AA49AAA0FEF7F5FAC92246
:10480000A749B6A0FEF7F3FB00BF01F00DFC8146FF
:10481000FDF70CFF40B1A249B1A0FEF7E5FAC922AD
:104820009F49AEA0FEF7E3FB484601F001FC00BF44
:10483000019801F0FDFB00BF16B1306800B117B957
:104840006FF0090A6DE000203860786001F0ECFB41
:104850008346606D3168084000B134E0049810B9B7
:104860006FF0010A59E0204600F040FC94F8440043
:1048700040F0200084F844000498401C48B104AA89
:10488000002104F1700000F013FF04F1700000F04B
:1048900029FE584601F0CCFBFFF73CFD01F0C4FBBC
:1048A000834694F8440020F0200084F84400206CF3
:1048B000801C38B900202064584601F0B9FB6FF025
:1048C000010A2EE000BF656E23E0B5F800900120DC
:1048D00000FA09F031680840B0B1D5E90001C7E934
:1048E0000001B8F1000F03D0A868C8F8080001E083
:1048F000A8686066012101FA09F1606D884360656E
:104900002846FFF72EFA06E0A846A868A0F1080599
:1049100000BF002DD9D100BF00BF584601F088FB71
:1049200000BF504605B0BDE8F08F2DE9F0470446C2
:1049300001F07AFB8146666E00206066276E206675
:10494000484601F075FB5EB106F1080500BFA5F110
:1049500008084046FFF705FA2D68002DF7D100BF83
:1049600017B13846FEF78DFDBDE8F0872DE9FC470D
:1049700004460D462CB94FF4CA72634963A0FEF792
:1049800036FB002D01DB202D03DB6FF00900BDE8B5
:10499000FC87A8B2ADF800000120ADF802000020AD
:1049A000019001F041FB81460121A940606D084062
:1049B000E8B1676E484601F03BFBFFF757FD0EE09C
:1049C000A7F10808B8F80000A84207D1DDE9000106
:1049D000C8E90001FFF758FD0020D8E73F68002F25
:1049E000EED1FFF751FD01F01FFB814604E00121EC
:1049F000A940606D08436065484601F019FB00213D
:104A000046480068FFF722F9064606B300BF0020BB
:104A1000B06000BFDDE90001C6E9000101F004FB60
:104A20008146606E08B966660EE0636E03F10802A7
:104A300006F10800114600E009680F68002FFBD15D
:104A40000860076000BF00BF484601F0F1FA204649
:104A5000FFF7F0FD00209AE710B50C22202130A0CE
:104A6000FFF747F82D4908600846006828B94FF459
:104A7000F0722D4919A0FEF7BAFA002010BD00000F
:104A800003460008CD820308766563746F72732055
:104A9000213D2052545F4E554C4C000065450008A6
:104AA000BE82030846756E6374696F6E5B25735D25
:104AB000207368616C6C206E6F7420626520757362
:104AC0006564206265666F726520736368656475EE
:104AD0006C65722073746172740A0000300000000B
:104AE00046756E6374696F6E5B25735D20736861D4
:104AF0006C6C206E6F74206265207573656420692C
:104B00006E204953520A0000E18203087469642050
:104B1000213D2052545F4E554C4C000014010020A2
:104B20007369676E616C0000F0820308026851606F
:104B300002680A60016048607047D0E90021516056
:104B4000D0E900121160406000607047FE490860C3
:104B50007047FE4908607047FD490860704770B5AE
:104B6000FC48046801F060FA05462046FFF74FFC58
:104B7000042084F8440004F1700000F043FC204657
:104B8000FFF7A9FA012806D1D4F8AC0018B92046DD
:104B9000FFF707FA04E004F12401EF48FFF7C6FF2E
:104BA000284601F045FAFFF7B5FB70BD70B5054624
:104BB0002C462CB940F2E322E849E9A0FEF717FAA7
:104BC00094F8440000F00F00022805D04FF4397229
:104BD000E249E8A0FEF70BFA2046FFF78DFA28B16C
:104BE00040F2E522DD49F248FEF701FA6FF00100DC
:104BF000206404F12400FFF7A0FF2046FFF7DAFB52
:104C0000FFF788FB70BD2DE9FC5F04468B46164616
:104C10001F46DDE90C9ADDE90E5804F124004060DE
:104C2000006000BF26636763C4F83890C4F83CA0F6
:104C30002321D4E90E02FDF734FDD4E90E3C634490
:104C40001A1FAFF2E503D4E90C0100F0FDFEE062AB
:104C5000202D04DB9622D749D7A0FEF7C8F94034AF
:104C6000A57165710020A060C4F82880C4F82C806C
:104C700020602071E0662067403C00902346AFF240
:104C8000D3022146019004F1700000F09EFB002049
:104C9000A0656065E0652066606600BFAC4800689E
:104CA00018B12046AA490968884700BF0020BDE81E
:104CB000FC9F2DE9FF5F04460D46174698460EAE51
:104CC00096E8400E24B9E622C449A5A0FEF78FF964
:104CD00026B9E722C149C2A0FEF789F92A46002178
:104CE0002046FFF731F943463A46294620468DE8EB
:104CF000400EFFF788FF04B0BDE8F09F95480068BC
:104D0000704770B504462CB940F2B622BA4994A057
:104D1000FEF76DF92046FFF7EFF928B140F2B72210
:104D2000B549A348FEF763F900BF00BF94F84400FB
:104D300000F00F00022804D000BF00BF4FF0FF308A
:104D400070BD01F071F9054604F12400FFF7F5FE8E
:104D500004F1700000F079FC284601F069F9204662
:104D6000FFF728FB00BF7948006818B12046774953
:104D70000968884700BF0020E2E710B504462CB957
:104D80004FF486729D4976A0FEF731F994F84400FD
:104D900000F00F0028B140F20D12984998A0FEF7DC
:104DA00026F92046FFF7A8F928B14FF487729349F6
:104DB0007F48FEF71CF994F8460084F8450094F803
:104DC000451001208840A06400BF00BF022084F885
:104DD00044002046FFF795FFFFF790FF08B1FFF76B
:104DE00099FA002010BD70B504462CB940F2391272
:104DF00091495BA0FEF7FBF82046FFF77DF928B14B
:104E00004FF49D728C496A48FEF7F1F82046FFF78F
:104E100062F928B940F23B12874988A0FEF7E7F80B
:104E200094F8440000F00F0010B12046FFF7EFFAAD
:104E300004F1700000F0E6FA042084F844002046F3
:104E4000FFF7AFF8D4F8AC0050B101F0EDF805462B
:104E500004F124014048FFF769FE284601F0E8F814
:104E6000002070BD2DE9FF5F06460F4690461D46A7
:104E7000DDE90EAB31460020FFF7B2F88146B9F10B
:104E8000000F03D1002004B0BDE8F09F2846FEF7D4
:104E9000F3F9044624B94846FFF7F1F80020F2E799
:104EA00043463A46314648468DE8300CFFF7ABFEA4
:104EB0004846E8E770B504462CB940F29D126B49AC
:104EC00027A0FEF794F82046FFF716F928B14FF413
:104ED000CF7266493648FEF78AF82046FFF7FBF89E
:104EE00028B140F29F12614961A0FEF780F894F862
:104EF000440000F00F0010B12046FFF788FA04F1DB
:104F0000700000F07FFA042084F8440001F08CF86F
:104F1000054604F124011048FFF708FE284601F079
:104F200087F8002070BD70B501F07EF8054609488D
:104F3000046894F8440000F00F00012802D1D4E97D
:104F40000910B3E0CDE00000180100201C01002092
:104F500020010020FC000020080100209E8303089F
:104F600074687265616420213D2052545F4E554C37
:104F70004C000000287468726561642D3E73746192
:104F80007420262052545F5448524541445F535484
:104F900041545F4D41534B29203D3D2052545F54B5
:104FA00048524541445F53555350454E440000001C
:104FB00004090508068303087072696F72697479C1
:104FC000203C2052545F5448524541445F5052495E
:104FD0004F524954595F4D41580000001683030851
:104FE000737461636B5F737461727420213D20522E
:104FF000545F4E554C4C00008D83030825830308F5
:10500000287468726561642D3E7374617420262073
:1050100052545F5448524541445F535441545F4D8C
:1050200041534B29203D3D2052545F544852454145
:10503000445F494E495400003783030872745F6F20
:10504000626A6563745F69735F73797374656D6FAA
:10505000626A656374282872745F6F626A6563743C
:105060005F742974687265616429000048830308CD
:1050700072745F6F626A6563745F69735F7379737B
:1050800074656D6F626A656374282872745F6F62FD
:105090006A6563745F742974687265616429203D70
:1050A0003D2052545F46414C53450000814218D088
:1050B00004F12400FFF741FD94F845208B4B03EBEE
:1050C000C20004F124014268116042684A604160F4
:1050D000086000BF284600F0ABFFFFF71BF9002077
:1050E00070BD284600F0A4FF0020F9E770B5044623
:1050F00034B940F28B227E49AFF29C10FDF777FF66
:105100002046FEF7F9FF28B14FF423727849794819
:10511000FDF76DFF00BF00BF94F8440000F00F00E2
:10512000012804D000BF00BF4FF0FF3070BD00F079
:105130007BFF054694F8440020F00F0040F0020089
:1051400084F844002046FFF762F904F1700000F093
:105150007CFA284600F06CFF00BF6748006818B171
:10516000204665490968884700BF0020DEE731B561
:1051700000F05AFF05466148046834B940F2F7125E
:105180005F49AFF22420FDF732FF2046FEF7B4FF5F
:1051900028B14FF4FC725A495648FDF728FF2046C3
:1051A000FFF7A4FF6A46002104F1700000F080FAC6
:1051B00004F1700000F096F9284600F039FFFFF77F
:1051C000A9F8206C801C08B900202064002038BD9C
:1051D00010B504462046FFF7CAFF10BD70B504465F
:1051E0002046FAF7D3FF05462846FFF7C0FF70BDFB
:1051F0002DE9F04104460E46154634B94FF40F72BE
:105200004049AFF2A420FDF7F2FE2046FEF774FFFE
:1052100028B140F23D223B493648FDF7E8FE3EB357
:10522000012E2AD0022E2CD100F0FEFE074694F863
:10523000440000F00F0001280ED12046FFF7E7F8E8
:10524000287884F8450094F8451001208840A0642F
:105250002046FFF7AFF807E0287884F8450094F877
:10526000451001208840A064384600F0E1FE09E0C6
:105270002046FFF782FDBDE8F0812046FFF71AFEC9
:10528000F9E700BF00BF0020F5E72DE9F041064631
:10529000FFF734FD08B1FFF7E9F80020FEF742FE02
:1052A00004462CB940F20A32174918A0FDF79FFEB8
:1052B000656810E0A5F11C07192231463846FDF754
:1052C000DEFA38B9FFF71AFD08B1FFF7DDF8384606
:1052D000BDE8F0812D68201D8542EBD1FFF70EFD62
:1052E00008B1FFF7D1F80020F2E7000030070020F6
:1052F0007B8303080409050818010020FC00002036
:105300005983030869830308B0830308696E666FD5
:10531000726D6174696F6E20213D2052545F4E554D
:105320004C4C00000268516002680A6001604860ED
:105330007047F84908607047F749086070472DE9E1
:10534000F04704460E4617469846DDF8209084F84C
:105350001A90A07E20F00100A076E662276300206C
:10536000A063C4F83480002506E004F1240101EBB9
:10537000C50000F04BFB6D1C012DF6DBBDE8F0878E
:1053800070B50446204600F044FB10B14FF0FF30EA
:1053900070BD2068A0F12405A86BF9E710B502469E
:1053A000002001460EE002F1240303EBC100D0E926
:1053B00000436360D0E9003423604060006000BFB8
:1053C000481C01460129EEDB10BD2DE9F8430446D7
:1053D0000D4616461F46DDE9088924B9BA22CF4991
:1053E000CFA0FDF704FE2A4609212046FEF7ACFDBA
:1053F00043463A4631462046CDF80090FFF79FFFDE
:10540000BDE8F88370B5044624B9CF22C949C4A0C9
:10541000FDF7EDFD2046FEF76FFE092804D0D022EF
:10542000C449C5A0FDF7E3FD2046FEF754FE20B9B0
:10543000D122C049CFA0FDF7DAFD00F0F5FD054609
:105440002046FFF7ABFF284600F0F2FD2046FEF7AE
:10545000A8FD002070BD2DE9F84304460E4617460E
:105460009846DDF8209021460920FEF7B9FD054653
:1054700015B90020BDE8F88343463A463146284630
:10548000CDF80090FFF75BFF2846F3E770B50446C0
:105490002CB94FF48772C249A1A0FDF7A8FD2046A0
:1054A000FEF72AFE092805D040F20F12BC49A2A03F
:1054B000FDF79DFD2046FEF70EFE28B14FF48872E1
:1054C000B749B8A0FDF793FD00F0AEFD05462046B4
:1054D000FFF764FF284600F0ABFD2046FEF7CFFD46
:1054E000002070BD2DE9F84305462DB94FF499729F
:1054F000BA498BA0FDF77BFD2846FEF7FDFD092884
:1055000005D040F23312B5498BA0FDF770FD00F0D5
:105510008BFD80462846FFF741FFA87E20F0010062
:10552000A876404600F084FD00BFAD48006818B181
:105530002846AB490968884700BF6FF00041686B97
:10554000884205D340F24312A449A6A0FDF74FFDBF
:10555000FAF7F9FD696B0844A86300F065FD804621
:10556000A87E00F0040008B1A74E00E0A74E009608
:1055700000242AE019E05DF824201168242202EBBF
:10558000C402881A826BAB6BD21A00D108E0826B1E
:10559000AB6BD21A6FF000439A4200D20CE000BF0E
:1055A0005DF8240000684DF824005DF8240006EB47
:1055B000C40149688842DED100BF2CB15DF82400E7
:1055C0000830611C4DF82100641C002CD2D090489A
:1055D0000068401C8E4908600846076805F12401F0
:1055E0000098FFF79FFE022412E007F0030060B965
:1055F000C4F1010305F1240202EBC301C4F101026D
:105600005DF82200FFF78EFE00E003E0BF08641C97
:10561000012CEAD900BFA87E40F00100A8764046E0
:1056200000F006FDA87E00F0040058B1794890F81B
:10563000440000F00F00012804D07648FFF761FB1A
:10564000FEF768FE0020BDE8F88370B504462CB96B
:1056500040F2AB12704932A0FDF7C9FC2046FEF7BC
:105660004BFD092805D04FF4D6726B4932A0FDF7E7
:10567000BEFCA07E00F0010010B94FF0FF3070BDFD
:1056800000BF6648006818B1204664490968884729
:1056900000BF00F0C9FC05462046FFF77FFE284604
:1056A00000F0C6FCA07E20F00100A0760020E6E716
:1056B00070B504460E4615462CB94FF4E7725849AA
:1056C00017A0FDF794FC2046FEF716FD092805D02B
:1056D00040F2CF12524918A0FDF789FC4EB1012EBD
:1056E00004D0022E08D0032E10D10AE0606B28608F
:1056F0000CE02868606309E0A07E20F00200A0763C
:1057000004E0A07E40F00200A07600BF00BF0020B1
:1057100070BD00003401002038010020BF83030861
:1057200074696D657220213D2052545F4E554C4C7A
:1057300000000000CD83030872745F6F626A6563C6
:10574000745F6765745F74797065282674696D6528
:10575000722D3E706172656E7429203D3D20525459
:105760005F4F626A6563745F436C6173735F546912
:105770006D65720072745F6F626A6563745F6973EE
:105780005F73797374656D6F626A656374282674DC
:10579000696D65722D3E706172656E74290000003E
:1057A000DD83030872745F6F626A6563745F697397
:1057B0005F73797374656D6F626A656374282674AC
:1057C000696D65722D3E706172656E7429203D3D74
:1057D0002052545F46414C5345000000ED830308BE
:1057E000F000002074696D65722D3E696E69745F0A
:1057F0007469636B203C2052545F5449434B5F4DA6
:105800004158202F203200002C01002024010020CC
:105810003C01002030080020FC830308F400002035
:105820000A84030870B500BF00BFFAF78CFC054678
:1058300000F0FAFB06463CE07A480068A0F1240438
:10584000A06B281A6FF00041884231D200BF764821
:10585000006818B1204674490968884700BF20468F
:10586000FFF79CFDD4E90B108847FAF76CFC05465E
:1058700000BF6E48006818B120466C490968884727
:1058800000BF00BF00BFA07E00F0020058B1A07EA4
:1058900000F0010038B1A07E20F00100A076204683
:1058A000FFF720FE05E0A07E20F00100A07600E0DA
:1058B00004E05C4800F0ADF80028BDD000BF3046E1
:1058C00000F0B6FB00BF00BF70BD10B55548FFF734
:1058D00057FD10BD70B500BF00BFFAF734FC064697
:1058E000FEF7C4FD524805683FE0A5F12404A06B13
:1058F000301A6FF00041884236D200BF4A48006833
:1059000018B1204648490968884700BF2D682046DD
:10591000FFF744FDFEF7B8FDD4E90B108847FAF70E
:1059200012FC064600BF4148006818B120463F49B6
:105930000968884700BF00BF00BFFEF797FDA07E43
:1059400000F0020058B1A07E00F0010038B1A07E46
:1059500020F00100A0762046FFF7C4FD05E0A07E00
:1059600020F00100A07600E002E031488542BCD181
:1059700000BFFEF789FD00BF00BF70BD1CE02C48D2
:10598000FFF7FEFC0446601C38B9FFF7B7F905467F
:10599000FFF7ACFBFEF7BEFC0CE0FAF7D4FB0546C4
:1059A000601B6FF00041884203D2641B2046FFF762
:1059B0000FFC00BFFFF78EFFE1E710B5002405E004
:1059C000184901EBC40000F021F8641C002CF7D04A
:1059D00010BD1FB5002405E0154901EBC40000F01F
:1059E00015F8641C002CF7D00A200421CA01114BC1
:1059F000CDE90032CDE9021000230F4A0FA1114872
:105A0000FFF757F90F48FFF7B8F91FBD4060006076
:105A1000704701460868884201D101207047002084
:105A2000FCE70000240100203401002038010020A0
:105A30002C010020E40800207D59000874696D6580
:105A40007200000030080020F0B504460D461646EE
:105A5000301D20F0070040380146002203E0BE4F11
:105A600041F82270521C102AF9D30D624FF0000C3D
:105A7000C1F824C0C1F828C0C1F82CC0C1F830C09A
:105A80004B638C634FF0807CC1F83CC0F0BDB349E0
:105A90000860704710B5B2A0FDF7A6F9B4480188B8
:105AA000B4A0FDF7A1F9B248008800F0010010B1E0
:105AB000B6A0FDF799F9AE48008800F0020010B1D9
:105AC000B5A0FDF791F9AA48008800F0040010B1D4
:105AD000B4A0FDF789F9A648008800F0080010B1CD
